:100000000C9434000C9451000C9451000C94510049
:100010000C9451000C9451000C9451000C94680005
:100020000C9451000C9451000C9451000C9451000C
:100030000C9451000C9451000C9451000C945100FC
:100040000C9451000C9451000C9430040C94510009
:100050000C9451000C9451000C9451000C945100DC
:100060000C9451000C94510011241FBECFEFD8E026
:10007000DEBFCDBF11E0A0E0B1E0E4E2F1E102C0FB
:1000800005900D92A432B107D9F721E0A4E2B1E0C6
:1000900001C01D92AB33B207E1F70E9491050C94A9
:1000A00090080C940000E0910201F091030180811E
:1000B000826080838181846081838AEF8383E09181
:1000C0000001F0910101808182608083789408951D
:1000D0001F921FB61F9211248F939F93AF93BF93CC
:1000E0008091240190912501A0912601B0912701D2
:1000F0000196A11DB11D8093240190932501A09329
:100100002601B0932701BF91AF919F918F911F90CE
:100110001FBE1F901895F8946091240170912501DD
:10012000809126019091270178940895462F572FAA
:10013000BC01F8944093240150932501609326015B
:100140007093270178940895809304010895809115
:100150000401089590932901809328010895CF9276
:10016000DF92EF92FF920F931F93CF93DF930E9442
:100170008B006B017C0160E070E0CB010E94960077
:10018000609128017091290180E090E00E946C0745
:1001900020E030E04AE754E40E9423088B01D82F86
:1001A000C92FB601C7010E946C079B01AC01B801C1
:1001B0008D2F9C2F0E94C4060E943D07CB01DF912A
:1001C000CF911F910F91FF90EF90DF90CF90089506
:1001D0000E94AF0064E070E00E94AA0381E291E017
:1001E0000C9403034F925F926F927F928F929F9233
:1001F000AF92BF92CF92DF92EF92FF920F931F9335
:10020000CF93DF93BC01613A8FE0780730F580E04F
:1002100090E00E946C078B01D82FC92F80912D018F
:1002200090912E01892B51F5C801AD2FBC2F8093E1
:10023000330190933401A0933501B093360180933C
:100240002F0190933001A0933101B093320181E0EE
:1002500090E090932E0180932D01DF91CF911F911B
:100260000F91FF90EF90DF90CF90BF90AF909F9055
:100270008F907F906F905F904F900895C090330162
:10028000D0903401E0903501F090360180902F013C
:1002900090903001A0903101B090320180912B01FB
:1002A00090912C01892B09F066C098014D2F5C2F8D
:1002B000B601C7010E94BF0687FF3AC09601A70199
:1002C000B8018D2F9C2F0E9452062DEC3CEC4CE483
:1002D0005DE30E9423089B01AC01B601C7010E94A7
:1002E00053066B017C01CB01D701809333019093BE
:1002F0003401A0933501B093360120912F01309144
:1003000030014091310150913201B601C7010E9484
:10031000520620E030E040EA51E40E941E0887FDCA
:100320009CCF81E090E090932C0180932B0195CF9E
:1003300098014D2F5C2FC501B4010E941E081816AC
:10034000E4F6A5019401B8018D2F9C2F0E9452065E
:100350002DEC3CEC4CE45DE30E942308A5019401E4
:100360000E94530660932F017093300180933101F6
:1003700090933201C2CFA5019401B601C7010E943A
:1003800052062AE939E949E15EE30E9423082B017C
:100390003C019B01AC01B601C7010E9452069801C5
:1003A0004D2F5C2F0E94BF061816D4F09601A701AE
:1003B000B8018D2F9C2F0E9452062DEC3CEC4CE492
:1003C0005DE30E9423089601A7010E9453066093F3
:1003D00033017093340180933501909336013DCF02
:1003E000A5019401B201C3010E94530698014D2F4B
:1003F0005C2F0E941E0887FD30CFA5019401B80133
:100400008D2F9C2F0E9452062DEC3CEC4CE45DE3BA
:100410000E942308A50194010E94530660932F01B6
:1004200070933001809331019093320116CFDF92A7
:10043000EF92FF920F931F93CF93DF939C01EB01F9
:1004400010912A0180912B0190912C01892B09F4A4
:1004500047C0213A8FE0380708F042C0B90180E078
:1004600090E00E946C07D62EE72EF82E092F2091DF
:100470002F01309130014091310150913201609152
:1004800033017091340180913501909136010E94C1
:10049000530620E030E040E05FE30E9423089B0128
:1004A000AC016D2D7E2D8F2D902F0E941E0880385F
:1004B000880B81958117E9F020913701309138013F
:1004C0002F5F3F4F30933801209337012C173D07A2
:1004D000A0F080932A011092380110923701182F52
:1004E000812FDF91CF911F910F91FF90EF90DF90BF
:1004F00008951092380110923701812FF0CFCF92DA
:10050000DF92EF92FF92CF93DF937C01EB01CB015F
:100510000E94E504C7010E942E0561E070E0C7015A
:100520000E94480485E38A95F1F7000060E070E0DE
:10053000C7010E94480463E070E0CE010E944804B5
:10054000892BC9F3C12CD12C760163E070E0CE0178
:100550000E944804892BB1F080EAC8168CE8D806BE
:10056000E104F10429F4B0E0A0E0F0E8EFEB1FC0F3
:1005700085E08A95F1F700008FEFC81AD80AE80ADB
:10058000F80AE3CF80EAC8168CE8D806E104F10443
:1005900051F3C701B6010E946E0720E030E040EF42
:1005A00051E40E94C406B62FA72FF82FE92F20E0B0
:1005B00030E048EC52E46B2F7A2F8F2F9E2F0E9451
:1005C00023080E943607CB01DF91CF91FF90EF9077
:1005D000DF90CF900895E0910501F091060115821A
:1005E00087E6848386E0828388E981830895E091A9
:1005F0000501F0910601908195FFFDCF8683089556
:10060000809139010895CF93DF93EC018991811195
:1006100003C0DF91CF9108950E94F702F7CF9C01AC
:10062000FC0180E090E061507109409139014193F3
:100630000196411519F086179707BCF3280F391F4B
:10064000F901108281E008954F925F926F927F923C
:10065000AF92BF92CF92DF92EF92FF920F931F93D0
:10066000CF93DF93CDB7DEB72A970FB6F894DEBFEE
:100670000FBECDBF2B013C016A01CE0101967C016A
:100680008AE0F70111928A95E9F741145104610457
:100690007104B9F480E32A960FB6F894DEBF0FBE5A
:1006A000CDBFDF91CF911F910F91FF90EF90DF9021
:1006B000CF90BF90AF907F906F905F904F900C94D1
:1006C000F7025CF48DE20E94F702709460945094FB
:1006D0004094411C511C611C711C570100E010E04A
:1006E000C301B2012AE030E040E050E00E94110670
:1006F000F50161935F0129013A010F5F1F4F41141A
:1007000051046104710461F7C60101970A9708F466
:1007100086010E0D1F1DE016F106A9F42A960FB6EC
:10072000F894DEBF0FBECDBFDF91CF911F910F9127
:10073000FF90EF90DF90CF90BF90AF907F906F9041
:100740005F904F900895F80182918F01805D0E9423
:10075000F702E1CF9C01AB016630710514F045E072
:1007600050E0B901330F880B990B0C9424038F923E
:100770009F92AF92BF92CF92DF92EF92FF920F9330
:100780001F93CF93DF936B017C014A0159010E94B3
:1007900036078B01D82FC92F0E946E079B01AC0131
:1007A000B601C7010E9452066B017C01A401B80189
:1007B0008D2F9C2F0E9424038EE20E94F702E501F8
:1007C0001A141B040CF445C0C1E0D0E020E030E076
:1007D000A901C701B6010E94BF0687FF04C0F7FA4E
:1007E000F094F7F8F09400E010E020E030E040E210
:1007F00051E4C701B6010E9423086B017C010E94ED
:10080000360780E3860F0E94F702B601C7010E94F7
:100810003607072E000C880B990B0E946E079B0170
:10082000AC01B601C7010E9452066B017C010F5F4B
:100830001F4FC017D107C9F6DF91CF911F910F91BC
:10084000FF90EF90DF90CF90BF90AF909F908F90F0
:100850000895CB30D1050CF4B9CFCAE0D0E0B6CFC3
:100860008F93EF93FF93E0910501F091060186814C
:100870008093390181E080933A01FF91EF918F914C
:10088000189510923A01089580913A0190E00895E8
:10089000AC019B01883091051CF56115710509F4C7
:1008A00057C0A0910701B09108016130710509F4AA
:1008B00048C0E0910B01F0910C016230710559F5CF
:1008C000A0910701B09108018C9121E030E0B901BD
:1008D00002C0660F771F4A95E2F786278C9349C0BE
:1008E0000E971CF5485051096115710509F444C073
:1008F000A0911301B09114016130710511F1A09123
:100900001301B09114016230710509F455C0E091F2
:100910001701F0911801808190E002C095958795AC
:100920004A95E2F7E82FE17024C04E505109611555
:10093000710589F16130710599F5A0910D01B091B2
:100940000E018C9101C0220F4A95EAF7282B21C095
:10095000A0910701B09108018C9121E030E0B9012C
:1009600002C0660F771F4A95E2F7AB014095482316
:100970004C938E2F90E00895A0911301B091140133
:100980008C9121E030E001C0220F4A95EAF72095D2
:1009900028232C93EECFA0910D01B0910E01F0CF42
:1009A000E0911101F09112016230710509F0B3CFAD
:1009B000A0910D01B0910E018C9121E030E001C0B9
:1009C000220F4A95EAF7822789CF9C01883091054A
:1009D000BCF4E0910701F0910801308181E090E0E2
:1009E00001C0880F2A95EAF78095932F982390836A
:1009F000E0910901F0910A01908189238083089593
:100A00000E97B4F4E0911301F09114014081285045
:100A1000310981E090E001C0880F2A95EAF78095BE
:100A2000942F98239083E0911501F0911601E4CF63
:100A3000E0910D01F0910E0140812E50310981E0CD
:100A400090E001C0880F2A95EAF78095942F9823AB
:100A50009083E0910F01F0911001CECF9C0188307E
:100A60009105BCF4E0910701F0910801308181E02B
:100A700090E001C0880F2A95EAF7982F909593236C
:100A80009083E0910901F0910A019081892B808384
:100A900008950E97B4F4E0911301F0911401408190
:100AA0002850310981E090E001C0880F2A95EAF7CB
:100AB000982F909594239083E0911501F091160161
:100AC000E4CFE0910D01F0910E0140812E503109EB
:100AD00081E090E001C0880F2A95EAF78095942F75
:100AE00098239083E0910F01F09110019081892368
:100AF000CECF9C010497039730F4F901EE0FFF1F4E
:100B0000E20FF31F7796808108959C010497039765
:100B100030F4F901EE0FFF1FE20FF31F79966083A7
:100B200008950E94EB020E94530078940FEF1FEF8C
:100B30000E944404892BE9F10E9441040E940003B1
:100B4000C82F89E191E00E940303EC2E0C2E000CCB
:100B5000FF0864E070E0C7010E94AA0380E291E010
:100B60000E9403032FEF87EA91E6215080409040D6
:100B7000E1F700C00000C7014A97029708F040C0A3
:100B800089E191E00E94030364E070E0C7010E94E4
:100B9000AA0380E291E00E9403032FEF87EA91E627
:100BA000215080409040E1F700C000008C2F0E944F
:100BB000A40065E070E086E090E00E947F02D82FFC
:100BC000C92F0E94F20064E070E08D2F9C2F0E94DC
:100BD000170280932A010E94A7008B31B9F48091FB
:100BE0002A018017110629F00E94E80000912A01CD
:100BF00010E08FE39CE90197F1F700C0000098CF67
:100C0000C7FDD7CFC7010E94AA00D3CF64E070E030
:100C10008D2F9C2F0E94AA0380E291E00E94030383
:100C2000E8CF052E97FB1EF400940E94280657FD7E
:100C300007D00E94300607FC03D04EF40C9428061F
:100C400050954095309521953F4F4F4F5F4F0895F8
:100C500090958095709561957F4F8F4F9F4F089528
:100C6000A1E21A2EAA1BBB1BFD010DC0AA1FBB1FB0
:100C7000EE1FFF1FA217B307E407F50720F0A21B22
:100C8000B30BE40BF50B661F771F881F991F1A948F
:100C900069F760957095809590959B01AC01BD01B9
:100CA000CF0108955058BB27AA270E946A060C94CA
:100CB000E4070E94D60738F00E94DD0720F039F4DF
:100CC0009F3F19F426F40C94D3070EF4E095E7FB4C
:100CD0000C94CD07E92F0E94F50758F3BA17620765
:100CE00073078407950720F079F4A6F50C9417088C
:100CF0000EF4E0950B2EBA2FA02D0B01B901900137
:100D00000C01CA01A0011124FF27591B99F0593F7A
:100D100050F4503E68F11A16F040A22F232F342FC2
:100D20004427585FF3CF469537952795A795F04010
:100D30005395C9F77EF41F16BA0B620B730B840B25
:100D4000BAF09150A1F0FF0FBB1F661F771F881FDD
:100D5000C2F70EC0BA0F621F731F841F48F4879535
:100D600077956795B795F7959E3F08F0B0CF939527
:100D7000880F08F09927EE0F9795879508950E94A0
:100D8000A90708F481E008950E94D8060C94E407AE
:100D90000E94DD0758F00E94D60740F029F45F3F1B
:100DA00029F00C94CD0751110C9418080C94D3071A
:100DB0000E94F50768F39923B1F3552391F3951B2E
:100DC000550BBB27AA2762177307840738F09F5F6C
:100DD0005F4F220F331F441FAA1FA9F335D00E2ED9
:100DE0003AF0E0E832D091505040E695001CCAF746
:100DF0002BD0FE2F29D0660F771F881FBB1F261709
:100E000037074807AB07B0E809F0BB0B802DBF01DF
:100E1000FF2793585F4F3AF09E3F510578F00C94AE
:100E2000CD070C9418085F3FE4F3983ED4F3869501
:100E300077956795B795F7959F5FC9F7880F911DCF
:100E40009695879597F90895E1E0660F771F881FBB
:100E5000BB1F621773078407BA0720F0621B730B6E
:100E6000840BBA0BEE1F88F7E09508950E943D07AA
:100E70006894B1110C94180808950E94FD0788F039
:100E80009F5798F0B92F9927B751B0F0E1F0660F4E
:100E9000771F881F991F1AF0BA95C9F714C0B1308F
:100EA00091F00E941708B1E008950C941708672F7D
:100EB000782F8827B85F39F0B93FCCF386957795BE
:100EC0006795B395D9F73EF49095809570956195A7
:100ED0007F4F8F4F9F4F0895E89409C097FB3EF4D2
:100EE00090958095709561957F4F8F4F9F4F992377
:100EF000A9F0F92F96E9BB279395F69587957795F5
:100F00006795B795F111F8CFFAF4BB0F11F460FFB4
:100F10001BC06F5F7F4F8F4F9F4F16C0882311F00C
:100F200096E911C0772321F09EE8872F762F05C020
:100F3000662371F096E8862F70E060E02AF09A95BB
:100F4000660F771F881FDAF7880F9695879597F9B0
:100F50000895990F0008550FAA0BE0E8FEEF16164A
:100F60001706E807F907C0F012161306E407F5079D
:100F700098F0621B730B840B950B39F40A2661F011
:100F8000232B242B252B21F408950A2609F4A140B4
:100F9000A6958FEF811D811D089597F99F6780E8C1
:100FA00070E060E008959FEF80EC089500240A94BB
:100FB0001616170618060906089500240A94121634
:100FC0001306140605060895092E0394000C11F467
:100FD000882352F0BB0F40F4BF2B11F460FF04C014
:100FE0006F5F7F4F8F4F9F4F089557FD9058440F6D
:100FF000551F59F05F3F71F04795880F97FB991F78
:1010000061F09F3F79F08795089512161306140634
:10101000551FF2CF4695F1DF08C0161617061806C1
:10102000991FF1CF86957105610508940895E8949C
:10103000BB2766277727CB0197F908950E94A90758
:1010400008F48FEF08950E9436080C94E4070E947C
:10105000D60738F00E94DD0720F0952311F00C949C
:10106000CD070C94D30711240C9418080E94F5079F
:1010700070F3959FC1F3950F50E0551F629FF001EB
:10108000729FBB27F00DB11D639FAA27F00DB11D04
:10109000AA1F649F6627B00DA11D661F829F22278D
:1010A000B00DA11D621F739FB00DA11D621F839F14
:1010B000A00D611D221F749F3327A00D611D231FEA
:1010C000849F600D211D822F762F6A2F11249F5738
:1010D00050409AF0F1F088234AF0EE0FFF1FBB1F3B
:1010E000661F771F881F91505040A9F79E3F5105FA
:1010F00080F00C94CD070C9418085F3FE4F3983E01
:10110000D4F3869577956795B795F795E7959F5FA3
:10111000C1F7FE2B880F911D9695879597F9089535
:04112000F894FFCF71
:101124007000B000FFC0002B002A0029002800270F
:10113400002600250024002300434F4D414E444F18
:04114400200A0D0070
:00000001FF
